:020000040000FA
:100000008E31002EFF3FFF3F7E1480312000911182
:1000100024001108FA009A28161B1128750891006F
:100020009828F401A528F20B46283B287508F00013
:100030007A08F30043287308F600F701F800770800
:10004000F9007008F6000730F701F635F70D890B57
:1000500025287608F8077708F93D7808860079089A
:10006000870075088100F80A0319F90A432820005F
:10007000A301A30A43287108003A03191628013A7C
:1000800003191B2837282400151611287A08F500B3
:1000900098281513941AA5287A36F1000730F1052F
:1000A0007A1856280230F400F2009828F401F40A75
:1000B0008C287008910073087D287308F600F701FA
:1000C000F8007708F9007008F6000730F701F635F8
:1000D000F70D890B67287608F8077708F93D780847
:1000E00086007908870001089100F80A0319F90AC7
:1000F00078088600790887000108F5009728200015
:100100002308240091002000A3019728FD309100CE
:100110002000A301A30A97287108003A031959285F
:10012000013A03195D28063A03197F28862824001E
:100130001516A5287408003A03194928013A03192D
:100140000C28033A0319132849287E10090080312E
:10015000A928F001F101F201F301F401F501A30175
:100160007E102000B328D5208031ED2080311E2163
:1001700080312000A10A0319A20A2208803AA000B7
:10018000A7302002031DC62811302102031CD028ED
:100190002000A101A201220001308D0680308C06D2
:1001A00021009D149D1CB928D22822008C018D01AC
:1001B0008E01243021008C001E308D00BC308E005A
:1001C000043023008C001E308D00203024008C0071
:1001D00001308D00A0308E0008006A3021009900A7
:1001E0008B018B100B12C2302A00930091018E30CC
:1001F00022009E001F08C73908389F001F08F839E1
:1002000003389F0088309700A83098009A309900F2
:10021000213021009D0070309E000F309F00F03093
:100220002400930010309200263095001614200010
:100230009111210091150B178B17080030009201C6
:10024000930101309400033095009601013097002E
:1002500008309800990101309A0009309B00013064
:100260009C009D019E019F01A100A2018030A3007E
:10027000A4019F30A500A6010330A900AA00AD018A
:100280002030AB00AC010330AE00AF01A001B130B3
:1002900091000800FF3FFF3FFF3FFF3FFF3FFF3F51
:101BF000FF3FFF3FFF3FFF3FFF3FFF3F8031A728F1
:101C00008E311F2E080001000100010001000100BB
:101C100001000100010001000100010001000100BC
:101C200001000100010001000100010001000100AC
:101C300001000100010001000100010001007E100F
:101C40002000452EF500C2268E317108F70070087D
:101C5000F6007508860087017608C03F7708C13F07
:101C60000130F6020030F73B760A0319770A0319B0
:101C70000800C2268E317408860087017008C03FB4
:101C80007108C13FF40AF40A302E67278E3190277D
:101C90008E31003A0319472E20008C1E932E22000D
:101CA0008C1394278E31932E5330BC268E31932E75
:101CB0004230BC268E31932ECB268E31932EC226F7
:101CC0008E31FA278E31B2268E31B2268E31200027
:101CD0006308F1006208F00052278E314530BC26BF
:101CE0008E31932EC2268E31FA278E31B2268E3156
:101CF000B2268E312030F400603022268E31200052
:101D00006308F7006208F6006108F9006008F8004F
:101D10002030FA0097278E315730BC268E31932E13
:101D20008E3100268E31B2268E315B3A031D932E02
:101D3000803022008C06B2268E31423A0319582E8A
:101D4000073A03195F2E0C3A03195C2E1B3A03194C
:101D5000512E013A0319542E043A0319722E902E73
:101D6000803103282000911EB22E23009D1CBA2E24
:101D70001D121D1619080800F1005B3045278E3131
:101D80007108452FB2268E31F200B226F300F10021
:101D90007208F00008002B3045278E3101304527AE
:101DA0008E31F101F10AF2014D278E3108304527BD
:101DB0008E312030F101F2004D278E31F101F20118
:101DC0004D278E31033045278E312030F100F2014E
:101DD0004D278E31043045278E312030F100F2013D
:101DE0004D278E31053045278E310030F10001300E
:101DF000F2004D278E31063045278E310E30F1012D
:101E0000F2004D278E31F101F2014D278E3107305E
:101E100045278E31423045278E31753045278E312A
:101E2000633045278E316B3045278E31433045274F
:101E30008E316C3045278E31693045278E316330C5
:101E400045278E316B3045278E31003045278E3146
:101E5000003045278E31003045278E310030452730
:101E60008E31003045278E31003045278E310030CD
:101E700045278E31003045278E31003045278E3181
:101E8000003045278E310030452FF0002000111E14
:101E9000462F700823009A000800710845278E31EC
:101EA0007208452F00308B1B0130F2008B13710834
:101EB000230092007008910015139517151615153B
:101EC000CE27230015117208031D8B1708006E27FB
:101ED0008E3174278E31D7278E31E42F7230210056
:101EE00099009A0198010800803022008C008D0131
:101EF0008E011F3023008C003F308D007F30210089
:101F00008C00FF308D008E000830900024008C0182
:101F10008D018E0190012100951722009D0108007E
:101F20000B0C890C013908008D31FE2D08000130A1
:101F3000F8020030F93B790878040319AB2F7708D1
:101F4000EE278E31F40AB2278E31FA0AFA0AF60A1F
:101F50000319F70A972F7708EE278E31B227FA0A6E
:101F6000FA0A080000308B1B0130F5008B13710852
:101F70002300920070089100730894007208930087
:101F80007408031D9516031995121513951715124C
:101F90001515CE277508031D8B1708002300553033
:101FA0009600AA3096009514000000000800483002
:101FB00023009F0090309D0026309E0067309B00DC
:101FC0009C019A019901080021001508C0391238B6
:101FD000950020009501FB010B110800F100760827
:101FE000F0007A0886008701403FF200413FF3008D
:101FF000F401080071082000E3007008E200080006
:020000040001F9
:10E000000000FF00FF00FF00FF00FF00FF00FF0017
:10E01000FF00FF00FF00FF00FF00FF00FF00FF0008
:10E02000FF00FF00FF00FF00FF00FF00FF00FF00F8
:10E03000FF00FF00FF00FF00FF00FF00FF00FF00E8
:10E040001F000100020003000400FF00FF00FF00AA
:10E05000FF00FF00FF00FF00FF00FF00FF00FF00C8
:10E06000FF00FF00FF00FF00FF00FF00FF00FF00B8
:10E07000FF00FF00FF00FF00FF00FF00FF001F0088
:10E080000000FF00FF00FF00FF00FF00FF00FF0097
:10E09000FF00FF00FF00FF00FF00FF00FF00FF0088
:10E0A000FF00FF00FF00FF00FF00FF00FF00FF0078
:10E0B000FF00FF00FF00FF00FF00FF00FF00FF0068
:10E0C0000000FF00FF00FF00FF00FF00FF00FF0057
:10E0D000FF00FF00FF00FF00FF00FF00FF00FF0048
:10E0E000FF00FF00FF00FF00FF00FF00FF00FF0038
:10E0F000FF00FF00FF00FF00FF00FF00FF00FF0028
:10E100000000FF00FF00FF00FF00FF00FF00FF0016
:10E11000FF00FF00FF00FF00FF00FF00FF00FF0007
:10E12000FF00FF00FF00FF00FF00FF00FF00FF00F7
:10E13000FF00FF00FF00FF00FF00FF00FF00FF00E7
:10E140000000FF00FF00FF00FF00FF00FF00FF00D6
:10E15000FF00FF00FF00FF00FF00FF00FF00FF00C7
:10E16000FF00FF00FF00FF00FF00FF00FF00FF00B7
:10E17000FF00FF00FF00FF00FF00FF00FF00FF00A7
:10E180000000FF00FF00FF00FF00FF00FF00FF0096
:10E19000FF00FF00FF00FF00FF00FF00FF00FF0087
:10E1A000FF00FF00FF00FF00FF00FF00FF00FF0077
:10E1B000FF00FF00FF00FF00FF00FF00FF00FF0067
:10E1C0000000FF00FF00FF00FF00FF00FF00FF0056
:10E1D000FF00FF00FF00FF00FF00FF00FF00FF0047
:10E1E000FF00FF00FF00FF00FF00FF00FF00FF0037
:10E1F000FF00FF00FF00FF00FF00FF00FF00FF0027
:08000000FF3FFF3FFF3FFF3F00
:04000E00E42FFF1AC2
:00000001FF
